{
  "address": "0x5972A9ad112200e7D4C5a0e1E37177B2e496c9F6",
  "abi": [
    {
      "inputs": [
        {
          "internalType": "address",
          "name": "_ramp",
          "type": "address"
        },
        {
          "internalType": "contract INullifierRegistry",
          "name": "_nullifierRegistry",
          "type": "address"
        }
      ],
      "stateMutability": "nonpayable",
      "type": "constructor"
    },
    {
      "anonymous": false,
      "inputs": [
        {
          "indexed": true,
          "internalType": "address",
          "name": "previousOwner",
          "type": "address"
        },
        {
          "indexed": true,
          "internalType": "address",
          "name": "newOwner",
          "type": "address"
        }
      ],
      "name": "OwnershipTransferred",
      "type": "event"
    },
    {
      "inputs": [],
      "name": "PACK_SIZE",
      "outputs": [
        {
          "internalType": "uint256",
          "name": "",
          "type": "uint256"
        }
      ],
      "stateMutability": "view",
      "type": "function"
    },
    {
      "inputs": [],
      "name": "emailFromAddress",
      "outputs": [
        {
          "internalType": "bytes",
          "name": "",
          "type": "bytes"
        }
      ],
      "stateMutability": "view",
      "type": "function"
    },
    {
      "inputs": [],
      "name": "nullifierRegistry",
      "outputs": [
        {
          "internalType": "contract INullifierRegistry",
          "name": "",
          "type": "address"
        }
      ],
      "stateMutability": "view",
      "type": "function"
    },
    {
      "inputs": [],
      "name": "owner",
      "outputs": [
        {
          "internalType": "address",
          "name": "",
          "type": "address"
        }
      ],
      "stateMutability": "view",
      "type": "function"
    },
    {
      "inputs": [
        {
          "components": [
            {
              "internalType": "uint256[2]",
              "name": "a",
              "type": "uint256[2]"
            },
            {
              "internalType": "uint256[2][2]",
              "name": "b",
              "type": "uint256[2][2]"
            },
            {
              "internalType": "uint256[2]",
              "name": "c",
              "type": "uint256[2]"
            },
            {
              "internalType": "uint256[1]",
              "name": "signals",
              "type": "uint256[1]"
            }
          ],
          "internalType": "struct IRegistrationProcessor.RegistrationProof",
          "name": "_proof",
          "type": "tuple"
        }
      ],
      "name": "processProof",
      "outputs": [
        {
          "internalType": "bytes32",
          "name": "userIdHash",
          "type": "bytes32"
        }
      ],
      "stateMutability": "view",
      "type": "function"
    },
    {
      "inputs": [],
      "name": "ramp",
      "outputs": [
        {
          "internalType": "address",
          "name": "",
          "type": "address"
        }
      ],
      "stateMutability": "view",
      "type": "function"
    },
    {
      "inputs": [],
      "name": "renounceOwnership",
      "outputs": [],
      "stateMutability": "nonpayable",
      "type": "function"
    },
    {
      "inputs": [
        {
          "internalType": "address",
          "name": "newOwner",
          "type": "address"
        }
      ],
      "name": "transferOwnership",
      "outputs": [],
      "stateMutability": "nonpayable",
      "type": "function"
    }
  ],
  "transactionHash": "0x3e1a123e516801c2fc74a91f80c24fe72c2b3c4487a78df6664b927213f38837",
  "args": [
    "0x94951e9BF60049b897A0F72EDcfe0713C2E8573C",
    "0x781eB6913CA7aaAE365aEAE8030f6AE07220c1A2"
  ],
  "numDeployments": 1,
  "solcInputHash": "936a03414a849181ad1343bf5c153c51",
  "bytecode": "0x60a060405234801561001057600080fd5b506040516105c63803806105c683398101604081905261002f916100cd565b818161003a33610065565b6001600160a01b03918216608052600180546001600160a01b03191691909216179055506101079050565b600080546001600160a01b038381166001600160a01b0319831681178455604051919092169283917f8be0079c531659141344cd1fd0a4f28419497f9722a3daafe3b4186f6b6457e09190a35050565b6001600160a01b03811681146100ca57600080fd5b50565b600080604083850312156100e057600080fd5b82516100eb816100b5565b60208401519092506100fc816100b5565b809150509250929050565b60805161049e610128600039600081816092015261027d015261049e6000f3fe608060405234801561001057600080fd5b50600436106100885760003560e01c8063b870676c1161005b578063b870676c14610102578063c0d05fed14610115578063f2fde38b1461012a578063f7fe237e1461013d57600080fd5b806315d276e11461008d5780633d0c9cc4146100d1578063715018a6146100e75780638da5cb5b146100f1575b600080fd5b6100b47f000000000000000000000000000000000000000000000000000000000000000081565b6040516001600160a01b0390911681526020015b60405180910390f35b6100d9600781565b6040519081526020016100c8565b6100ef610150565b005b6000546001600160a01b03166100b4565b6001546100b4906001600160a01b031681565b61011d610164565b6040516100c8919061039d565b6100ef6101383660046103eb565b6101f2565b6100d961014b36600461041b565b610270565b6101586102f3565b610162600061034d565b565b6002805461017190610434565b80601f016020809104026020016040519081016040528092919081815260200182805461019d90610434565b80156101ea5780601f106101bf576101008083540402835291602001916101ea565b820191906000526020600020905b8154815290600101906020018083116101cd57829003601f168201915b505050505081565b6101fa6102f3565b6001600160a01b0381166102645760405162461bcd60e51b815260206004820152602660248201527f4f776e61626c653a206e6577206f776e657220697320746865207a65726f206160448201526564647265737360d01b60648201526084015b60405180910390fd5b61026d8161034d565b50565b6000336001600160a01b037f000000000000000000000000000000000000000000000000000000000000000016146102ea5760405162461bcd60e51b815260206004820181905260248201527f4f6e6c792052616d702063616e2063616c6c20746869732066756e6374696f6e604482015260640161025b565b50610100013590565b6000546001600160a01b031633146101625760405162461bcd60e51b815260206004820181905260248201527f4f776e61626c653a2063616c6c6572206973206e6f7420746865206f776e6572604482015260640161025b565b600080546001600160a01b038381166001600160a01b0319831681178455604051919092169283917f8be0079c531659141344cd1fd0a4f28419497f9722a3daafe3b4186f6b6457e09190a35050565b600060208083528351808285015260005b818110156103ca578581018301518582016040015282016103ae565b506000604082860101526040601f19601f8301168501019250505092915050565b6000602082840312156103fd57600080fd5b81356001600160a01b038116811461041457600080fd5b9392505050565b6000610120828403121561042e57600080fd5b50919050565b600181811c9082168061044857607f821691505b60208210810361042e57634e487b7160e01b600052602260045260246000fdfea2646970667358221220bc8f2c0893c3981c0fe84c7071cf4db9b40ac3906edc8297a3c8725ea317862764736f6c63430008120033",
  "devdoc": {
    "kind": "dev",
    "methods": {
      "owner()": {
        "details": "Returns the address of the current owner."
      },
      "renounceOwnership()": {
        "details": "Leaves the contract without owner. It will not be possible to call `onlyOwner` functions. Can only be called by the current owner. NOTE: Renouncing ownership will leave the contract without an owner, thereby disabling any functionality that is only available to the owner."
      },
      "transferOwnership(address)": {
        "details": "Transfers ownership of the contract to a new account (`newOwner`). Can only be called by the current owner."
      }
    },
    "version": 1
  },
  "userdoc": {
    "kind": "user",
    "methods": {},
    "version": 1
  },
  "storageLayout": {
    "storage": [
      {
        "astId": 7,
        "contract": "contracts/processors/UPIRegistrationProcessor.sol:UPIRegistrationProcessor",
        "label": "_owner",
        "offset": 0,
        "slot": "0",
        "type": "t_address"
      },
      {
        "astId": 3636,
        "contract": "contracts/processors/UPIRegistrationProcessor.sol:UPIRegistrationProcessor",
        "label": "nullifierRegistry",
        "offset": 0,
        "slot": "1",
        "type": "t_contract(INullifierRegistry)3819"
      },
      {
        "astId": 3638,
        "contract": "contracts/processors/UPIRegistrationProcessor.sol:UPIRegistrationProcessor",
        "label": "emailFromAddress",
        "offset": 0,
        "slot": "2",
        "type": "t_bytes_storage"
      }
    ],
    "types": {
      "t_address": {
        "encoding": "inplace",
        "label": "address",
        "numberOfBytes": "20"
      },
      "t_bytes_storage": {
        "encoding": "bytes",
        "label": "bytes",
        "numberOfBytes": "32"
      },
      "t_contract(INullifierRegistry)3819": {
        "encoding": "inplace",
        "label": "contract INullifierRegistry",
        "numberOfBytes": "20"
      }
    }
  }
}