{
  "address": "0xd77610A9116027E83A21032b4227433DafE9A371",
  "abi": [
    {
      "inputs": [
        {
          "internalType": "address",
          "name": "_ramp",
          "type": "address"
        },
        {
          "internalType": "contract INullifierRegistry",
          "name": "_nullifierRegistry",
          "type": "address"
        }
      ],
      "stateMutability": "nonpayable",
      "type": "constructor"
    },
    {
      "anonymous": false,
      "inputs": [
        {
          "indexed": true,
          "internalType": "address",
          "name": "previousOwner",
          "type": "address"
        },
        {
          "indexed": true,
          "internalType": "address",
          "name": "newOwner",
          "type": "address"
        }
      ],
      "name": "OwnershipTransferred",
      "type": "event"
    },
    {
      "inputs": [],
      "name": "emailFromAddress",
      "outputs": [
        {
          "internalType": "bytes",
          "name": "",
          "type": "bytes"
        }
      ],
      "stateMutability": "view",
      "type": "function"
    },
    {
      "inputs": [],
      "name": "nullifierRegistry",
      "outputs": [
        {
          "internalType": "contract INullifierRegistry",
          "name": "",
          "type": "address"
        }
      ],
      "stateMutability": "view",
      "type": "function"
    },
    {
      "inputs": [],
      "name": "owner",
      "outputs": [
        {
          "internalType": "address",
          "name": "",
          "type": "address"
        }
      ],
      "stateMutability": "view",
      "type": "function"
    },
    {
      "inputs": [
        {
          "components": [
            {
              "internalType": "uint256[2]",
              "name": "a",
              "type": "uint256[2]"
            },
            {
              "internalType": "uint256[2][2]",
              "name": "b",
              "type": "uint256[2][2]"
            },
            {
              "internalType": "uint256[2]",
              "name": "c",
              "type": "uint256[2]"
            },
            {
              "internalType": "uint256[3]",
              "name": "signals",
              "type": "uint256[3]"
            }
          ],
          "internalType": "struct IUPISendProcessor.SendProof",
          "name": "_proof",
          "type": "tuple"
        }
      ],
      "name": "processProof",
      "outputs": [
        {
          "internalType": "uint256",
          "name": "amount",
          "type": "uint256"
        },
        {
          "internalType": "uint256",
          "name": "timestamp",
          "type": "uint256"
        },
        {
          "internalType": "bytes32",
          "name": "intentHash",
          "type": "bytes32"
        }
      ],
      "stateMutability": "nonpayable",
      "type": "function"
    },
    {
      "inputs": [],
      "name": "ramp",
      "outputs": [
        {
          "internalType": "address",
          "name": "",
          "type": "address"
        }
      ],
      "stateMutability": "view",
      "type": "function"
    },
    {
      "inputs": [],
      "name": "renounceOwnership",
      "outputs": [],
      "stateMutability": "nonpayable",
      "type": "function"
    },
    {
      "inputs": [
        {
          "internalType": "address",
          "name": "newOwner",
          "type": "address"
        }
      ],
      "name": "transferOwnership",
      "outputs": [],
      "stateMutability": "nonpayable",
      "type": "function"
    }
  ],
  "transactionHash": "0xe7b47c9435cc3d2327d7554ae3917a17ead2eb704ca7ef2c5ec913feb56d4d16",
  "args": [
    "0x696ACb718e1AFdF8143e43aDFAAfDC0480c2C06f",
    "0x65b4eC32937ca2740f53718d17ead1199CE79A6B"
  ],
  "numDeployments": 1,
  "solcInputHash": "830257b29fcbbf18f9e1d1182e9c74c1",
  "bytecode": "0x60a060405234801561001057600080fd5b506040516105d23803806105d283398101604081905261002f916100cd565b818161003a33610065565b6001600160a01b03918216608052600180546001600160a01b03191691909216179055506101079050565b600080546001600160a01b038381166001600160a01b0319831681178455604051919092169283917f8be0079c531659141344cd1fd0a4f28419497f9722a3daafe3b4186f6b6457e09190a35050565b6001600160a01b03811681146100ca57600080fd5b50565b600080604083850312156100e057600080fd5b82516100eb816100b5565b60208401519092506100fc816100b5565b809150509250929050565b6080516104aa610128600039600081816087015261015901526104aa6000f3fe608060405234801561001057600080fd5b506004361061007d5760003560e01c80638da5cb5b1161005b5780638da5cb5b146100fe578063b870676c1461010f578063c0d05fed14610122578063f2fde38b1461013757600080fd5b806315d276e11461008257806345452acd146100c6578063715018a6146100f4575b600080fd5b6100a97f000000000000000000000000000000000000000000000000000000000000000081565b6040516001600160a01b0390911681526020015b60405180910390f35b6100d96100d43660046103a9565b61014a565b604080519384526020840192909252908201526060016100bd565b6100fc6101e4565b005b6000546001600160a01b03166100a9565b6001546100a9906001600160a01b031681565b61012a6101f8565b6040516100bd91906103c2565b6100fc610145366004610410565b610286565b60008080336001600160a01b037f000000000000000000000000000000000000000000000000000000000000000016146101cb5760405162461bcd60e51b815260206004820181905260248201527f4f6e6c792052616d702063616e2063616c6c20746869732066756e6374696f6e60448201526064015b60405180910390fd5b5050506101008101359161012082013591610140013590565b6101ec6102ff565b6101f66000610359565b565b6002805461020590610440565b80601f016020809104026020016040519081016040528092919081815260200182805461023190610440565b801561027e5780601f106102535761010080835404028352916020019161027e565b820191906000526020600020905b81548152906001019060200180831161026157829003601f168201915b505050505081565b61028e6102ff565b6001600160a01b0381166102f35760405162461bcd60e51b815260206004820152602660248201527f4f776e61626c653a206e6577206f776e657220697320746865207a65726f206160448201526564647265737360d01b60648201526084016101c2565b6102fc81610359565b50565b6000546001600160a01b031633146101f65760405162461bcd60e51b815260206004820181905260248201527f4f776e61626c653a2063616c6c6572206973206e6f7420746865206f776e657260448201526064016101c2565b600080546001600160a01b038381166001600160a01b0319831681178455604051919092169283917f8be0079c531659141344cd1fd0a4f28419497f9722a3daafe3b4186f6b6457e09190a35050565b600061016082840312156103bc57600080fd5b50919050565b600060208083528351808285015260005b818110156103ef578581018301518582016040015282016103d3565b506000604082860101526040601f19601f8301168501019250505092915050565b60006020828403121561042257600080fd5b81356001600160a01b038116811461043957600080fd5b9392505050565b600181811c9082168061045457607f821691505b6020821081036103bc57634e487b7160e01b600052602260045260246000fdfea264697066735822122014f9951bcf19556bd8d150f4654a6b2445f8207887353dda9ebf3f3113887f6964736f6c63430008120033",
  "devdoc": {
    "kind": "dev",
    "methods": {
      "owner()": {
        "details": "Returns the address of the current owner."
      },
      "renounceOwnership()": {
        "details": "Leaves the contract without owner. It will not be possible to call `onlyOwner` functions. Can only be called by the current owner. NOTE: Renouncing ownership will leave the contract without an owner, thereby disabling any functionality that is only available to the owner."
      },
      "transferOwnership(address)": {
        "details": "Transfers ownership of the contract to a new account (`newOwner`). Can only be called by the current owner."
      }
    },
    "version": 1
  },
  "userdoc": {
    "kind": "user",
    "methods": {},
    "version": 1
  },
  "storageLayout": {
    "storage": [
      {
        "astId": 7,
        "contract": "contracts/processors/UPISendProcessor.sol:UPISendProcessor",
        "label": "_owner",
        "offset": 0,
        "slot": "0",
        "type": "t_address"
      },
      {
        "astId": 3597,
        "contract": "contracts/processors/UPISendProcessor.sol:UPISendProcessor",
        "label": "nullifierRegistry",
        "offset": 0,
        "slot": "1",
        "type": "t_contract(INullifierRegistry)3780"
      },
      {
        "astId": 3599,
        "contract": "contracts/processors/UPISendProcessor.sol:UPISendProcessor",
        "label": "emailFromAddress",
        "offset": 0,
        "slot": "2",
        "type": "t_bytes_storage"
      }
    ],
    "types": {
      "t_address": {
        "encoding": "inplace",
        "label": "address",
        "numberOfBytes": "20"
      },
      "t_bytes_storage": {
        "encoding": "bytes",
        "label": "bytes",
        "numberOfBytes": "32"
      },
      "t_contract(INullifierRegistry)3780": {
        "encoding": "inplace",
        "label": "contract INullifierRegistry",
        "numberOfBytes": "20"
      }
    }
  }
}